:100000000C942A000C9447000C9447000C94470071
:100010000C9447000C9447000C9447000C94470044
:100020000C9447000C9447000C9447000C94470034
:100030000C9447000C9447000C9447000C94470024
:100040000C9447000C9447000C9447000C94470014
:100050000C94470011241FBECFE5D8E0DEBFCDBF12
:1000600010E0A0E6B0E0EAEFFDE002C005900D92DE
:10007000AE37B107D9F710E0AEE7B0E001C01D928E
:10008000AE37B107E1F70E9449000C94FB060C94CF
:100090000000CF93DF9300D000D000D0CDB7DEB703
:1000A0000F2EF0E6CF2EF0E0DF2EF02D0F2EF6E033
:1000B000EF2EF02DBB240E9437020E94C205DE0104
:1000C0001196F6018E2D01900D928150E1F7FB2CD7
:1000D0000E941306E1E0F0E0EC0FFD1FEF0DF11DB3
:1000E00080838F3FA9F3813451F08D3341F08B32FF
:1000F00031F08D3221F08A3211F08F3219F40E94E2
:100100004203D9CF682F70E060537040882777FD95
:100110008095982F0E9492028F2D8F5F2FEF32E5EE
:1001200047E0215030404040E1F700C0000001E0CE
:1001300010E00C0F1D1F080F111D0E941306D8019F
:100140008C938F3FD1F3813451F08D3341F08B325A
:1001500031F08D3221F08A3211F08F3219F40E9481
:100160004203A9CF682F70E060537040882777FD65
:100170008095982F0E9492028F2D8E5F2FEF32E58F
:1001800047E0215030404040E1F700C0000001E06E
:1001900010E00C0F1D1F080F111D0E941306D8013F
:1001A0008C938F3FD1F3813411F08D3319F40E9479
:1001B000420381CF0E945A028F2D8D5F2FEF32E5CF
:1001C00047E0215030404040E1F700C0000001E02E
:1001D00010E00C0F1D1F080F111D0E941306D801FF
:1001E0008C938F3FD1F3813451F08D3341F08B32BA
:1001F00031F08D3221F08A3211F08F3219F40E94E1
:10020000420359CF682F70E060537040882777FD14
:100210008095982F0E9492028F2D8C5F2FEF32E5F0
:1002200047E0215030404040E1F700C0000001E0CD
:1002300010E00C0F1D1F080F111D0E941306D8019E
:100240008C938F3FD1F3813451F08D3341F08B3259
:1002500031F08D3221F08A3211F08F3219F40E9480
:10026000420329CF682F70E060537040882777FDE4
:100270008095982F0E949202B5E0FB0E2FEF32E599
:1002800047E0215030404040E1F700C0000001E06D
:1002900010E00C0F1D1F0F0D111D0E941306D80139
:1002A0008C938F3FD1F38D3309F0B2C00E945A0274
:1002B0008B818B3261F08C3220F48A3209F0ABC032
:1002C00052C08D3251F18F3209F0A5C078C08981BA
:1002D00090E0880F991FAC01440F551F440F551F24
:1002E000480F591F8A81480F511D8C8190E0880F5B
:1002F000991F9C01220F331F220F331F820F931F60
:10030000840F951F2D81BC01620F711D60527440D6
:1003100080E090E00E9492027EC0898190E0880F88
:10032000991FAC01440F551F440F551F480F591F0B
:100330008A81480F511D8C8190E0880F991F9C0184
:10034000220F331F220F331F820F931FBA01681B26
:10035000790B8D81680F711D6056704080E090E0D0
:100360000E94920258C0898190E0880F991FAC01C9
:10037000440F551F440F551F480F591F8A81480FBE
:10038000511D405152408C8190E0880F991F9C0173
:10039000220F331F220F331F820F931F2D81820FD5
:1003A000911D80519240489FB001499F700D589F08
:1003B000700D112480E090E00E9492022CC089818F
:1003C00090E0880F991FAC01440F551F440F551F33
:1003D000480F591F8A81480F511D405152408C814E
:1003E00090E0880F991F9C01220F331F220F331FAB
:1003F000BC01620F731F8D81680F711D60517240C7
:10040000CA010E94B20680E090E00E94920203C0FE
:100410000E94420350CE2FEF31EE44E02150304095
:100420004040E1F700C0000053CECF93C82F82E0D8
:1004300060E040E00E94070482E061E040E00E944A
:10044000070481E06C2F0E94A80482E062E041E092
:100450000E9407048FE99FE00197F1F700C00000B8
:1004600082E062E040E00E940704CF91089581E0BD
:100470006FEF0E94ED0382E060E041E00E944C03D8
:1004800082E061E041E00E944C0382E062E041E0F2
:100490000E944C038FE59AEE0197F1F700C000002F
:1004A00088E30E9415028CE00E94150281E00E9400
:1004B00015020895CF93C82F82E060E041E00E94CA
:1004C000070482E061E040E00E94070481E06C2FB5
:1004D0000E94A80482E062E041E00E9407048FE9E4
:1004E0009FE00197F1F700C0000082E062E040E089
:1004F0000E940704CF9108950F931F93CF938C010F
:10050000FC018081882351F0C0E00E945A02CF5F35
:10051000F801EC0FF11D80818823B9F7CF911F916D
:100520000F9108954F925F926F927F928F929F9258
:10053000AF92BF92CF92DF92EF92FF92CF93DF9371
:100540006B017C01611571058105910521F480E342
:100550000E945A024FC081E090E0A0E0B0E00F2E70
:10056000FAE08F2EF0E09F2EF0E0AF2EF0E0BF2EED
:10057000F02DBC01CD01A50194010E9493062B0131
:100580003C01C701B6010E94C506DC01CB01840D08
:10059000951DA61DB71DC22ED32EE42EF52EC11417
:1005A000D104E104F10429F781309105A105B105D9
:1005B00009F10F2EFAE04F2EF0E05F2EF0E06F2EE3
:1005C000F0E07F2EF02DBC01CD01A30192010E942D
:1005D000C506822EC32EC42FD52F862F805D0E9484
:1005E0005A02882D9C2DAC2FBD2F81309105A1057D
:1005F000B10549F7DF91CF91FF90EF90DF90CF9059
:10060000BF90AF909F908F907F906F905F904F9032
:100610000895882329F0813029F4862F805C03C057
:10062000862F01C080E080580E9415020895DF9255
:10063000EF92FF920F931F93CF93DF93082FF92E22
:10064000162FE42ED22E862F880F880F880F805CFD
:100650000E941502C02FDF2D00E089910E945A02EE
:100660000F5F0830D1F78E2D6D2D0E940903812F69
:100670000E945A02DF91CF911F910F91FF90EF904E
:10068000DF90089581E00E9415028FE19EE40197BA
:10069000F1F700C000000895683008F096C04423C8
:1006A00009F04AC08230D9F0833020F4813009F05B
:1006B0008EC006C0833011F1843009F088C02DC08F
:1006C0002AB381E090E0AC0102C0440F551F6A9547
:1006D000E2F7BA01609562236ABB80E0089527B310
:1006E00081E090E0AC0102C0440F551F6A95E2F72B
:1006F000BA016095622367BB80E0089524B381E06E
:1007000090E0AC0102C0440F551F6A95E2F7BA01B0
:100710006095622364BB80E0089521B381E090E09E
:10072000AC0102C0440F551F6A95E2F7BA0160950B
:10073000622361BB80E00895413009F04AC08230F5
:10074000D1F0833020F4813009F045C006C08330F9
:1007500001F1843009F03FC02AC02AB381E090E063
:10076000AC0102C0440F551F6A95E2F7BA01622B33
:100770006ABB80E0089527B381E090E0AC0102C03D
:10078000440F551F6A95E2F7BA01622B67BB80E000
:10079000089524B381E090E0AC0102C0440F551FDE
:1007A0006A95E2F7BA01622B64BB80E0089521B339
:1007B00081E090E0AC0102C0440F551F6A95E2F75A
:1007C000BA01622B61BB80E0089581E0089581E069
:1007D000089581E0089581E00895823069F08330C2
:1007E00018F4813091F405C0833049F0843069F405
:1007F00009C06ABB80E0089567BB80E0089564BBD0
:1008000080E0089561BB80E0089581E0089568303C
:1008100008F096C0442309F04AC08230D9F08330F2
:1008200020F4813009F08EC006C0833011F184308D
:1008300009F088C02DC02BB381E090E0AC0102C06C
:10084000440F551F6A95E2F7BA01609562236BBBAE
:1008500080E0089528B381E090E0AC0102C0440F2D
:10086000551F6A95E2F7BA016095622368BB80E084
:10087000089525B381E090E0AC0102C0440F551FFC
:100880006A95E2F7BA016095622365BB80E008953E
:1008900022B381E090E0AC0102C0440F551F6A957D
:1008A000E2F7BA016095622362BB80E008954130AF
:1008B00009F04AC08230D1F0833020F4813009F051
:1008C00045C006C0833001F1843009F03FC02AC022
:1008D0002BB381E090E0AC0102C0440F551F6A9534
:1008E000E2F7BA01622B6BBB80E0089528B381E088
:1008F00090E0AC0102C0440F551F6A95E2F7BA01BF
:10090000622B68BB80E0089525B381E090E0AC01E4
:1009100002C0440F551F6A95E2F7BA01622B65BB0E
:1009200080E0089522B381E090E0AC0102C0440F62
:10093000551F6A95E2F7BA01622B62BB80E0089509
:1009400081E0089581E0089581E0089581E00895AF
:10095000823069F0833018F4813091F405C083301F
:1009600049F0843069F409C06BBB80E0089568BB2E
:1009700080E0089565BB80E0089562BB80E0089543
:1009800081E00895683008F046C08230D1F08330AD
:1009900020F4813009F041C006C0833001F1843079
:1009A00009F03BC02AC02BB381E090E0AC0102C04B
:1009B000440F551F6A95E2F7BA0162276BBB80E0CE
:1009C000089528B381E090E0AC0102C0440F551FA8
:1009D0006A95E2F7BA01622768BB80E0089525B303
:1009E00081E090E0AC0102C0440F551F6A95E2F728
:1009F000BA01622765BB80E0089522B381E090E0F0
:100A0000AC0102C0440F551F6A95E2F7BA01622794
:100A100062BB80E0089581E0089581E0089582300E
:100A200079F0833018F48130D1F405C0833069F057
:100A30008430A9F40FC08BB380958BBB80E0089500
:100A400088B3809588BB80E0089585B3809585BB89
:100A500080E0089582B3809582BB80E0089581E0B4
:100A600008954115510509F44DC0683008F04CC097
:100A70008230D9F0833020F4813009F047C006C0BD
:100A8000833011F1843009F041C02DC089B390E06A
:100A90009C0102C0359527956A95E2F7B90161700E
:100AA00069BBFA01608380E0089586B390E09C0101
:100AB00002C0359527956A95E2F7B901617066BB6A
:100AC000FA01608380E0089583B390E09C0102C046
:100AD000359527956A95E2F7B901617063BBFA0114
:100AE000608380E0089580B390E09C0102C035955A
:100AF00027956A95E2F7B901617060BBFA016083DE
:100B000080E0089581E0089581E0089581E00895EE
:100B10008230A9F0833018F4813091F505C083301C
:100B2000C9F0843069F521C029B330E0C90102C0A1
:100B3000959587956A95E2F7817089BB089526B3EC
:100B400030E0C90102C0959587956A95E2F78170FA
:100B500086BB089523B330E0C90102C095958795FF
:100B60006A95E2F7817083BB089520B330E0C90134
:100B700002C0959587956A95E2F7817080BB0895CC
:100B800080E0089584E064E041E00E944C0384E04A
:100B900065E041E00E944C0384E066E041E00E9491
:100BA0004C0384E067E041E00E944C0384E060E095
:100BB00040E00E944C0384E061E040E00E944C036E
:100BC00084E062E040E00E944C0384E063E040E0A7
:100BD0000E944C0384E064E041E00E94070484E04A
:100BE00065E041E00E94070484E066E041E00E9485
:100BF000070484E067E041E00E94070484E060E0CD
:100C000041E00E94070484E061E041E00E940704A3
:100C100084E062E041E00E94070484E063E041E098
:100C20000E94070408952F923F924F925F926F9215
:100C30007F928F929F92AF92BF92CF92DF92EF926C
:100C4000FF920F931F93CF93DF9300D00F92CDB7F6
:100C5000DEB70F2EF6E66F2EF0E07F2EF02DAA24E1
:100C6000BB240F2EFAE64F2EF0E05F2EF02D22244B
:100C70003324BB82AA82F301E1903F0184E06E2D10
:100C800040E00E94070462018101F601F1906F01CA
:100C900084E06F2DAE014F5F5F4F0E943105898167
:100CA0008823B9F4F801EE0FFF1FEE0FFF1F8A81B2
:100CB0009B81E80FF91FE259FF4F008184E06F2DFF
:100CC000AE014F5F5F4F0E94310589818823B1F3E8
:100CD00013C00F5F1F4F04301105B9F684E06E2D6D
:100CE00041E00E9407040894A11CB11C94E0A916DD
:100CF000B10409F0BECF0FEF802F0F900F900F902F
:100D0000DF91CF911F910F91FF90EF90DF90CF90E7
:100D1000BF90AF909F908F907F906F905F904F901B
:100D20003F902F900895629FD001739FF001829FA2
:100D3000E00DF11D649FE00DF11D929FF00D839F6A
:100D4000F00D749FF00D659FF00D9927729FB00D07
:100D5000E11DF91F639FB00DE11DF91FBD01CF011A
:100D60001124089597FB092E07260AD077FD04D099
:100D70002ED006D000201AF4709561957F4F08950B
:100D8000F6F7909581959F4F0895A1E21A2EAA1B20
:100D9000BB1BFD010DC0AA1FBB1FEE1FFF1FA2172B
:100DA000B307E407F50720F0A21BB30BE40BF50B28
:100DB000661F771F881F991F1A9469F760957095B1
:100DC000809590959B01AC01BD01CF010895AA1BB0
:100DD000BB1B51E107C0AA1FBB1FA617B70710F026
:100DE000A61BB70B881F991F5A95A9F78095909558
:0A0DF000BC01CD010895F894FFCF77
:100DFA00FFFFFFFFFFFF0405060700010203373864
:0E0E0A00392F3435362A3132332D41303D2B0D
:00000001FF
